RA20SERVICE TIRE TRUCK CENTERS         202111011334200180111                        MAGELLAN RX PHARMACY                                       EXPRESS SCRIPTS PHARMACY, INC      1 EXPRESS WAY                                               ST. LOUIS           MO 6312 182      ZAIDI                    SYED           3146847183T                                                                                                                                                                                                                                                                                                                                                                                                                                                                                                                                                                                                                                                                                                                                                                                                                                                                                                                                                                                                                                                                                                                                                                                                                                                                                                                          
SR0327317                            011649352006     BE8131625      EXPRESS SCRIPTS     7909 S. HARDY, SUITE 106                                    TEMPE               AZ852840000      4804033610POKORNEY RPH             MANDI          011558738864                    MAGELLAN RX PHARMACY6870 SHADOWRIDGE DR. STE 111                                ORLANDO             FL328120000      4078586285MCGEE RPH                ISAAC                                                                                                                                                                                                                                                                                                                                                                                                                                                                                                                                                                                                                                                                                                                                                                                                                                                                                                                                                                                                                                                                                                                                                                                                                       
RX086858138978                            SARVER                             BRIAN                               SARVER                             WANDA                               0010 WHITE DOGWOOD DR                                         ETTERS              PA173199567      TE7175422710                                                                                195804192   212111796665202107300350742061501        1METOPROLOL SUCC ER TABS                                     TAB ER 24H                    25MG           20000090000030900350742061501        METOPROLOL SUCC ER TABS                                     TAKE 1 TABLET DAILY                                                                                                                                                                                     202108030000090000202108030000090000000027000001030000000000N MCCAULEY                 JULIE          875 POPLAR CHURCH RD                                        CAMP HILL           PA170110000      TE7177246450               011093901654                                                                                                                                                                                                                                                  0022                                                                                                                                                                                                                                                                                             
ST0327317                            011649352006     011558738864     00000003                                                                                                                                                                                                                                                                                                                                                                                                                                                                                                                                                                                                                                                                                                                                                                                                                                                                                                                                                                                                                                                                                                                                                                                                                                                                                                                                                                                                                                                                                                                                                                                 
SR1562760                            011063645026     FE4301468      EXPRESS SCRIPTS     4750 E 450 SOUTH                                            WHITESTOWN          IN460758404      3177687000STEWART RPH              ROBYN          011558738864                    MAGELLAN RX PHARMACY6870 SHADOWRIDGE DR. STE 111                                ORLANDO             FL328120000      4078586285MCGEE RPH                ISAAC                                                                                                                                                                                                                                                                                                                                                                                                                                                                                                                                                                                                                                                                                                                                                                                                                                                                                                                                                                                                                                                                                                                                                                                                                       
RX043410495290                            LOCKARD                            JAMES                               LOCKARD                            TORRIE                              005359 DORIS DRIVE                                            MILLVILLE           NJ083320000      TE8563270948jimslilprincess@gmail.com                                                       197203012   203200706656202011110300023921110        1COMBIGAN OPTH SOLN 10ML                                     DROPS                         0.2/0.5        00000030000040900300023921110        COMBIGAN OPTH SOLN 10ML                                     INSTILL 1 DROP IN BOTH EYES TWICE A DAY                                                                                                                                                                 202011170000020000202102180000040000000004000002020100000000N TYSON                    SYDNEY         251 S LINCOLN AVENUE                                        VINELAND            NJ083610000      TE8566918188BT3720403      011639113665                                                                                                                                                                                                                                                  0022                                                                                                                                                                                                                                                                                             
RX043410495290                            LOCKARD                            JAMES                               LOCKARD                            TORRIE                              005359 DORIS DRIVE                                            MILLVILLE           NJ083320000      TE8563270948jimslilprincess@gmail.com                                                       197203012   211961660057202107150380681000900        1VIT D-3 CAP(CHOLECALCI) 50MCG                               CAPSULE                       2,000U         00000090000030900380681000900        VIT D-3 CAP(CHOLECALCI) 50MCG                               TAKE 1 CAPSULE DAILY                                                                                                                                                                                    202107180000090000202109290000180000000018000002020100000000N TIWANA                   MANPREET       700 SHORE ROAD                                              SOMERS POINT        NJ082440000      TE6093656212FT3421245      011225265820                                                                                                                                                                                                                                                  0022                                                                                                                                                                                                                                                                                             
RX255176999499                            DEALTREY                           WALTER                              DEALTREY                           LUCINDA                             001640 COUNTRY RD                                             BETHLEHEM           PA180155717      TE4843570329ldealtrey@gmail.com                                                             196007102   211942498912202107130350419045404        1ESTRADIOL(CLIMARA)TD PATCH                                  PATCH                         0.025MG        50000012000030840350419045404        ESTRADIOL(CLIMARA)TD PATCH                                  PLACE 1 PATCH ON THE SKIN ONCE A WEEK                                                                                                                                                                   202107150000012000202110040000024000000002400002020100000000N GILLIER                  CHRISTIN       2200 ST LUKES BLVD                                          EASTON              PA180450000      TE4845030628FG5234872      011790065522                                                                                                                                                                                                                                                  0022                                                                                                                                                                                                                                                                                             
ST1562760                            011063645026     011558738864     00000005                                                                                                                                                                                                                                                                                                                                                                                                                                                                                                                                                                                                                                                                                                                                                                                                                                                                                                                                                                                                                                                                                                                                                                                                                                                                                                                                                                                                                                                                                                                                                                                 
SR3148423                            011417376765     FE4492738      EXPRESS SCRIPTS     2040 ROUTE 130 NORTH                                        BURLINGTON          NJ080160000      6093600001CYMBALSKI RPH            PETER          011558738864                    MAGELLAN RX PHARMACY6870 SHADOWRIDGE DR. STE 111                                ORLANDO             FL328120000      4078586285MCGEE RPH                ISAAC                                                                                                                                                                                                                                                                                                                                                                                                                                                                                                                                                                                                                                                                                                                                                                                                                                                                                                                                                                                                                                                                                                                                                                                                                       
RX008926514774                            WIDMAN                             ARLENE                              WIDMAN                             ARLENE                              00748 HALTEMAN RD                                             SOUDERTON           PA189642305      TE2676648676awidman1031@yahoo.com                                                           195602242   210062589256202101060300186504054        1NEXIUM CAPS                                                 CAPSULE DR                    40MG           00000180000030900370377005612        ESOMEPRAZOLE MAG DR CAPS                                    TAKE 1 CAPSULE BEFORE BREAKFAST AND DINNER DAILY (INCREASING DOSE)                                                                                                                                      202101060000180000202101060000180000000054000001030000000000N SCHEIBEL                 VICTORIA       125 MEDICAL CAMPUS D                                        LANSDALE            PA194460000      TE2159979377MS3487421      011871985804                                                                                                                                                                                                                                                  0011                                                                                                                                                                                                                                                                                             
RX024506127488                            BROWN                              JOHN                                BROWN                              JOHN                                00508 TULIP LN                                                NAZARETH            PA180649687      TE4842410725jb360vz@gmail.com                                                               196304021   210533601112202102220369097094307        1GABAPENTIN CAPS                                             CAPSULE                       300MG          00000270000030900369097094307        GABAPENTIN CAPS                                             TAKE 1 CAPSULE THREE TIMES A DAY FOR PAIN                                                                                                                                                               202102220000270000202108160000810000000027000003010200000000N MILES                    GEORGE         3101 EMRICK BLVD                                            BETHLEHEM           PA180200000      TE6104196426AM5650266      011396737458                                                                                                                                                                                                                                                  0011                                                                                                                                                                                                                                                                                             
RX024506127488                            BROWN                              JOHN                                BROWN                              JOHN                                00508 TULIP LN                                                NAZARETH            PA180649687      TE4842410725jb360vz@gmail.com                                                               196304021   211033267012202104130369097012705        1AMLODIPINE BESYLATE TABS                                    TABLET                        5MG            00000090000030900369097012705        AMLODIPINE BESYLATE TABS                                    TAKE 1 TABLET DAILY                                                                                                                                                                                     202104130000090000202109230000270000000009000003010200000000N MILES                    GEORGE         3101 EMRICK BLVD                                            BETHLEHEM           PA180200000      TE6104196426AM5650266      011396737458                                                                                                                                                                                                                                                  0011                                                                                                                                                                                                                                                                                             
RX024506127488                            BROWN                              JOHN                                BROWN                              JOHN                                00508 TULIP LN                                                NAZARETH            PA180649687      TE4842410725jb360vz@gmail.com                                                               196304021   211033267112202104130300228282011        1HYDROCHLOROTHIAZIDE TABS                                    TABLET                        12.5MG         00000090000030900300228282011        HYDROCHLOROTHIAZIDE TABS                                    TAKE 1 TABLET DAILY                                                                                                                                                                                     202104130000090000202109230000270000000009000003010200000000N MILES                    GEORGE         3101 EMRICK BLVD                                            BETHLEHEM           PA180200000      TE6104196426AM5650266      011396737458                                                                                                                                                                                                                                                  0011                                                                                                                                                                                                                                                                                             
RX024506127488                            BROWN                              JOHN                                BROWN                              JOHN                                00508 TULIP LN                                                NAZARETH            PA180649687      TE4842410725jb360vz@gmail.com                                                               196304021   212354025312202108230300071015523        1LIPITOR TABS                                                TABLET                        10MG           00000090000030900360505257809        ATORVASTATIN TABS                                           TAKE 1 TABLET DAILY                                                                                                                                                                                     202108230000090000202108230000090000000027000001030000000000N MILES                    G              3101 EMRICK BLVD                                            BETHLEHEM           PA180200000      TE4848225570AM5650266      011396737458                                                                                                                                                                                                                                                  0011                                                                                                                                                                                                                                                                                             
RX024506127488                            BROWN                              JOHN                                BROWN                              JOHN                                00508 TULIP LN                                                NAZARETH            PA180649687      TE4842410725jb360vz@gmail.com                                                               196304021   212354109012202108230300378581377        1VALSARTAN TABS                                              TABLET                        80MG           00000090000030900300378581377        VALSARTAN TABS                                              TAKE 1 TABLET DAILY                                                                                                                                                                                     202108230000090000202108230000090000000027000001030000000000N MILES                    G              3101 EMRICK BLVD                                            BETHLEHEM           PA180200000      TE4848225570AM5650266      011396737458                                                                                                                                                                                                                                                  0011                                                                                                                                                                                                                                                                                             
RX024506127488                            BROWN                              JOHN                                BROWN                              JOHN                                00508 TULIP LN                                                NAZARETH            PA180649687      TE4842410725jb360vz@gmail.com                                                               196304021   212471736212202109160331722072690        1MONTELUKAST SOD TABS                                        TABLET                        10MG           00000090000030900331722072690        MONTELUKAST SOD TABS                                        TAKE 1 TABLET AT BEDTIME                                                                                                                                                                                202109220000090000202109220000090000000027000001030000000000N THACHIL                  RAJEEVE        2403 BUTLER ST                                              EASTON              PA180420000      TE4848225405BT6070801      011174622625                                                                                                                                                                                                                                                  0011                                                                                                                                                                                                                                                                                             
RX024506127488                            BROWN                              JOHN                                BROWN                              JOHN                                00508 TULIP LN                                                NAZARETH            PA180649687      TE4842410725jb360vz@gmail.com                                                               196304021   212662910712202110050376204020001        1ALBUTEROL SULF INH SOL 3ML 1S                               VIAL-NEB                      0.083%         00000081000030090376204020001        ALBUTEROL SULF INH SOL 3ML 1S                               USE 1 VIAL BY NEBULIZER EVERY 6 HOURS AS NEEDED FOR WHEEZING OR SHORTNESS OF BREATH                                                                                                                     202110070000081000202110070000081000000024300001030000000000N THACHIL                  RAJEEVE        2403 BUTLER ST                                              EASTON              PA180420000      TE4848225405BT6070801      011174622625                                                                                                                                                                                                                                                  0011                                                                                                                                                                                                                                                                                             
RX024506127488                            BROWN                              JOHN                                BROWN                              JOHN                                00508 TULIP LN                                                NAZARETH            PA180649687      TE4842410725jb360vz@gmail.com                                                               196304021   211581997217202104230359310057922        1ALBUTEROL(PROAIR)HFA INH 8.5G                               HFA AER AD                    90MCG          50000025500500900359310057922        ALBUTEROL(PROAIR)HFA INH 8.5G                               USE 2 INHALATIONS EVERY 6 HOURS AS NEEDED FOR WHEEZING OR SHORTNESS OF BREATH                                                                                                                           202106070000025500202110130000051000000005100002020100000000N THACHIL                  RAJEEVE        2403 BUTLER ST                                              EASTON              PA180420000      TE4848225405BT6070801      011174622625                                                                                                                                                                                                                                                  0011                                                                                                                                                                                                                                                                                             
RX043410495290                            LOCKARD                            JAMES                               LOCKARD                            TORRIE                              005359 DORIS DRIVE                                            MILLVILLE           NJ083320000      TE8563270948jimslilprincess@gmail.com                                                       197203012   211931085117202107120316571065710        1CEVIMELINE HCL CAPS                                         CAPSULE                       30MG           00000090000110300316571065710        CEVIMELINE HCL CAPS                                         TAKE 1 CAPSULE THREE TIMES A DAY FOR SJOGRENS                                                                                                                                                           202107130000090000202110210000450000000063000005070400000000N MORTENSEN                JILL           1203 HIGH ST N STE A                                        MILLVILLE           NJ083320000      TE8563270182AM1281548      011609816511                                                                                                                                                                                                                                                  0022                                                                                                                                                                                                                                                                                             
RX043410495290                            LOCKARD                            JAMES                               LOCKARD                            TORRIE                              005359 DORIS DRIVE                                            MILLVILLE           NJ083320000      TE8563270948jimslilprincess@gmail.com                                                       197203012   203532221956202012180368382009601        1HYDROXYCHLOROQUINE SUL TABS                                 TABLET                        200MG          00000135000030900368382009601        HYDROXYCHLOROQUINE SUL TABS                                 TAKE ONE AND ONE-HALF TABLETS DAILY.                                                                                                                                                                    202012220000135000202108120000270000000027000002020100000000N TIWANA                   MANPREET       700 SHORE ROAD                                              SOMERS POINT        NJ082440000      TE6093656212               011225265820                                                                                                                                                                                                                                                  0022                                                                                                                                                                                                                                                                                             
RX043410495290                            LOCKARD                            JAMES                               LOCKARD                            TORRIE                              005359 DORIS DRIVE                                            MILLVILLE           NJ083320000      TE8563270948jimslilprincess@gmail.com                                                       197203012   203630408656202012210351991000633        1DESVENLAFAXINE SUCC ER TABS                                 TAB ER 24H                    25MG           00000090000030900351991000633        DESVENLAFAXINE SUCC ER TABS                                 TAKE 1 TABLET DAILY                                                                                                                                                                                     202012300000090000202103290000180000000018000002020100000000N TIWANA                   MANPREET       700 SHORE ROAD                                              SOMERS POINT        NJ082440000      TE6093656212FT3421245      011225265820                                                                                                                                                                                                                                                  0022                                                                                                                                                                                                                                                                                             
RX043410495290                            LOCKARD                            JAMES                               LOCKARD                            TORRIE                              005359 DORIS DRIVE                                            MILLVILLE           NJ083320000      TE8563270948jimslilprincess@gmail.com                                                       197203012   210673613956202103080368382009601        1HYDROXYCHLOROQUINE SUL TABS                                 TABLET                        200MG          00000135000030900368382009601        HYDROXYCHLOROQUINE SUL TABS                                 TAKE ONE AND ONE-HALF TABLETS DAILY                                                                                                                                                                     202103100000135000202106080000270000000027000002020100000000N TIWANA                   MANPREET       700 SHORE ROAD                                              SOMERS POINT        NJ082440000      TE6093656212FT3421245      011225265820                                                                                                                                                                                                                                                  0022                                                                                                                                                                                                                                                                                             
RX043410495290                            LOCKARD                            JAMES                               LOCKARD                            TORRIE                              005359 DORIS DRIVE                                            MILLVILLE           NJ083320000      TE8563270948jimslilprincess@gmail.com                                                       197203012   212190194256202108070323155005901        1VERAPAMIL HCL TABS                                          TABLET                        40MG           00000090000030900323155005901        VERAPAMIL HCL TABS                                          TAKE 1 TABLET DAILY                                                                                                                                                                                     202108090000090000202108090000090000000027000001030000000000N MORTENSEN                JILL           1203 N HIGH STREET,                                         MILLVILLE           NJ083320000      TE8563270182               011609816511                                                                                                                                                                                                                                                  0022                                                                                                                                                                                                                                                                                             
RX043410495290                            LOCKARD                            JAMES                               LOCKARD                            TORRIE                              005359 DORIS DRIVE                                            MILLVILLE           NJ083320000      TE8563270948jimslilprincess@gmail.com                                                       197203012   211130303157202103150300023921110        1COMBIGAN OPTH SOLN 10ML                                     DROPS                         0.2/0.5        00000030000040900300023921110        COMBIGAN OPTH SOLN 10ML                                     INSTILL 1 DROP IN BOTH EYES TWICE A DAY                                                                                                                                                                 202104230000020000202110210000060000000002000003010200000000N TYSON                    SYDNEY         251 S LINCOLN AVENUE                                        VINELAND            NJ083610000      TE8566918188BT3720403      011639113665                                                                                                                                                                                                                                                  0022                                                                                                                                                                                                                                                                                             
RX043410495290                            LOCKARD                            JAMES                               LOCKARD                            TORRIE                              005359 DORIS DRIVE                                            MILLVILLE           NJ083320000      TE8563270948jimslilprincess@gmail.com                                                       197203012   211190084757202103150324208046325        1LATANOPROST OPTH SOLN 2.5ML                                 DROPS                         0.005%         00000007500030900324208046325        LATANOPROST OPTH SOLN 2.5ML                                 INSTILL 1 DROP IN BOTH EYES AT BEDTIME                                                                                                                                                                  202104290000007500202110270000022500000000750003010200000000N TYSON                    SYDNEY         251 S LINCOLN AVENUE                                        VINELAND            NJ083610000      TE8566918188BT3720403      011639113665                                                                                                                                                                                                                                                  0022                                                                                                                                                                                                                                                                                             
RX043410495290                            LOCKARD                            JAMES                               LOCKARD                            TORRIE                              005359 DORIS DRIVE                                            MILLVILLE           NJ083320000      TE8563270948jimslilprincess@gmail.com                                                       197203012   211972196257202107160343598043611        1NITROGLYCERIN SL TB 25S 0.4MG                               TAB SUBL                      1/150GR        00000025000060080343598043611        NITROGLYCERIN SL TB 25S 0.4MG                               DISSOLVE 1 TABLET UNDER THE TONGUE EVERY 5 MINUTES AS NEEDED FOR CHEST PAIN                                                                                                                             202107190000025000202110130000100000000007500004030300000000N RANA                     JITEN          1076 E CHESTNUT AVEN                                        VINELAND            NJ083600000      TE8566927979BR6412364      011518068972                                                                                                                                                                                                                                                  0022                                                                                                                                                                                                                                                                                             
RX043410495290                            LOCKARD                            JAMES                               LOCKARD                            TORRIE                              005359 DORIS DRIVE                                            MILLVILLE           NJ083320000      TE8563270948jimslilprincess@gmail.com                                                       197203012   212432008157202108310380681000200        1ZINC GLUCONATE TABS                                         TABLET                        50MG           00000090000030900380681000200        ZINC GLUCONATE TABS                                         TAKE 1 TABLET DAILY                                                                                                                                                                                     202109040000090000202109040000090000000027000001030000000000N TIWANA                   MANPREET       700 SHORE ROAD                                              SOMERS POINT        NJ082440000      TE6093656212FT3421245      011225265820                                                                                                                                                                                                                                                  0022                                                                                                                                                                                                                                                                                             
RX043410495290                            LOCKARD                            JAMES                               LOCKARD                            TORRIE                              005359 DORIS DRIVE                                            MILLVILLE           NJ083320000      TE8563270948jimslilprincess@gmail.com                                                       197203012   212672035257202109240360505016809        1PRAVASTATIN TABS                                            TABLET                        10MG           00000090000040900360505016809        PRAVASTATIN TABS                                            TAKE 1 TABLET DAILY                                                                                                                                                                                     202109260000090000202109260000090000000036000001040000000000N RANA                     JITEN          1076 E CHESTNUT AVEN                                        VINELAND            NJ083600000      TE8566927979BR6412364      011518068972                                                                                                                                                                                                                                                  0022                                                                                                                                                                                                                                                                                             
RX059267676625                            HERSHEY                            RANDALL                             HERSHEY                            MARY                                0021 LANDIS AVE                                               LANCASTER           PA176024115      TE7172994001mhershey49@aol.com                                                              195709042   212120044712202108020363304007601        1POT CHLOR ER (DISP) TABS                                    TAB PRT SR                    10MEQ          00000090000030900363304007601        POT CHLOR ER (DISP) TABS                                    TAKE 1 TABLET DAILY                                                                                                                                                                                     202108030000090000202110310000180000000018000002020100000000N HESS                     J CLAIR        29 EASTBROOK RD                                             RONKS               PA175720000      TE7172995711AH2688185      011619910197                                                                                                                                                                                                                                                  0022                                                                                                                                                                                                                                                                                             
RX059267676625                            HERSHEY                            RANDALL                             HERSHEY                            MARY                                0021 LANDIS AVE                                               LANCASTER           PA176024115      TE7172994001mhershey49@aol.com                                                              195709042   213022698856202110290360505265701        1TRIAMTERENE/HCTZ  TABS                                      TABLET                        75/50MG        00000090000030900360505265701        TRIAMTERENE/HCTZ  TABS                                      TAKE 1 TABLET DAILY                                                                                                                                                                                     202110310000090000202110310000090000000027000001030000000000N BROOKS                   CHARLES        29 EASTBROOK RD                                             RONKS               PA175720000      TE7172995711MB6033613      011114537966                                                                                                                                                                                                                                                  0022                                                                                                                                                                                                                                                                                             
RX059267676625                            HERSHEY                            RANDALL                             HERSHEY                            RANDALL                             0021 LANDIS AVE                                               LANCASTER           PA176024115      TE7172994001                                                                                195108161   210752378156202103160360505267109        1ATORVASTATIN TABS                                           TABLET                        80MG           00000090000030900360505267109        ATORVASTATIN TABS                                           TAKE 1 TABLET DAILY                                                                                                                                                                                     202103160000090000202109100000270000000009000003010200000000N SEITZ                    LEAH           217 HARRISBURG AVE                                          LANCASTER           PA176030000      TE7175448300MS5131064      011952886632                                                                                                                                                                                                                                                  0011                                                                                                                                                                                                                                                                                             
RX059267676625                            HERSHEY                            RANDALL                             HERSHEY                            RANDALL                             0021 LANDIS AVE                                               LANCASTER           PA176024115      TE7172994001                                                                                195108161   210752378456202103160368382077316        1EZETIMIBE TABS                                              TABLET                        10MG           00000090000030900368382077316        EZETIMIBE TABS                                              TAKE 1 TABLET DAILY                                                                                                                                                                                     202103160000090000202109100000270000000009000003010200000000N SEITZ                    LEAH           217 HARRISBURG AVE                                          LANCASTER           PA176030000      TE7175448300MS5131064      011952886632                                                                                                                                                                                                                                                  0011                                                                                                                                                                                                                                                                                             
RX063400807443                            KELLAR                             PATRICK                             KELLAR                             CHARISSE                            0069 WINDBEAM LOOP                                            RINGWOOD            NJ074561865      TE0000000000ckellar@optonline.net                                                           195612112   213002544917202107220300456140590        1BYSTOLIC TABS                                               TABLET                        5MG            50000090000030900300456140590        NEBIVOLOL(BYSTOLIC) TABS                                    TAKE 1 TABLET DAILY                                                                                                                                                                                     202110280000090000202110280000090000000018000001020000000000N HIRSCH                   CARY           257 LAFAYETTE AVE                                           SUFFERN             NY109010000      TE8453680330AH2486860      011215965298                                                                                                                                                                                                                                                  0022                                                                                                                                                                                                                                                                                             
RX063400807443                            KELLAR                             PATRICK                             KELLAR                             CHARISSE                            0069 WINDBEAM LOOP                                            RINGWOOD            NJ074561865      TE0000000000ckellar@optonline.net                                                           195612112   212031628356202107220300378581377        1VALSARTAN TABS                                              TABLET                        80MG           00000090000030900300378581377        VALSARTAN TABS                                              TAKE 1 TABLET DAILY                                                                                                                                                                                     202107230000090000202110280000180000000018000002020100000000N HIRSCH                   CARY           257 LAFAYETTE AVE                                           SUFFERN             NY109010000      TE8453680330AH2486860      011215965298                                                                                                                                                                                                                                                  0022                                                                                                                                                                                                                                                                                             
RX063400807443                            KELLAR                             PATRICK                             KELLAR                             CHARISSE                            0069 WINDBEAM LOOP                                            RINGWOOD            NJ074561865      TE0000000000ckellar@optonline.net                                                           195612112   212031628456202107220362559051001        1INDAPAMIDE TABS                                             TABLET                        1.25MG         00000045000030900362559051001        INDAPAMIDE TABS                                             TAKE 1 TABLET EVERY OTHER DAY                                                                                                                                                                           202107230000045000202110280000090000000009000002020100000000N HIRSCH                   CARY           257 LAFAYETTE AVE                                           SUFFERN             NY109010000      TE8453680330AH2486860      011215965298                                                                                                                                                                                                                                                  0022                                                                                                                                                                                                                                                                                             
RX063400807443                            KELLAR                             PATRICK                             KELLAR                             CHARISSE                            0069 WINDBEAM LOOP                                            RINGWOOD            NJ074561865      TE0000000000ckellar@optonline.net                                                           195612112   212031628556202107220372205000490        1ROSUVASTATIN TABS                                           TABLET                        20MG           00000090000030900372205000490        ROSUVASTATIN TABS                                           TAKE 1 TABLET DAILY                                                                                                                                                                                     202107230000090000202110280000180000000018000002020100000000N HIRSCH                   CARY           257 LAFAYETTE AVE                                           SUFFERN             NY109010000      TE8453680330AH2486860      011215965298                                                                                                                                                                                                                                                  0022                                                                                                                                                                                                                                                                                             
RX063400807443                            KELLAR                             PATRICK                             KELLAR                             PATRICK                             0069 WINDBEAM LOOP                                            RINGWOOD            NJ074561865      TE0000000000pkellar@optonline.net                                                           195512281   212991724156202110260372205002790        1ROSUVASTATIN TABS                                           TABLET                        5MG            00000090000020900372205002790        ROSUVASTATIN TABS                                           TAKE 1 TABLET NIGHTLY                                                                                                                                                                                   202110260000090000202110260000090000000018000001020000000000N HIRSCH                   CARY           257 LAFAYETTE AVE                                           SUFFERN             NY109010000      TE8453680330AH2486860      011215965298                                                                                                                                                                                                                                                  0011                                                                                                                                                                                                                                                                                             
RX063400807443                            KELLAR                             PATRICK                             KELLAR                             PATRICK                             0069 WINDBEAM LOOP                                            RINGWOOD            NJ074561865      TE0000000000pkellar@optonline.net                                                           195512281   213002868556202110270300254200801        1COLCHICINE TABS                                             TABLET                        0.6MG          00000045000010230300254200801        COLCHICINE TABS                                             TAKE 2 TABLETS DAILY AS NEEDED FOR GOUT AND PAIN                                                                                                                                                        202110280000045000202110280000045000000004500001010000000000N MILLER                   DEAN           2 CROSFIELD AVE STE                                         WEST NYACK          NY109940000      TE8453535600BM3716048      011568416451                                                                                                                                                                                                                                                  0011                                                                                                                                                                                                                                                                                             
RX065115501312                            NEFF                               KYLE                                NEFF                               MIRANDA                             00300 ROCKY VIEW DR APT 4                                     STRASBURG           VA226572173      TE5403359524mirandacoffey93@gmail.com                                                       199312302   211482088857202105280313668013701        1ESCITALOPRAM TABS                                           TABLET                        20MG           00000090000010900313668013701        ESCITALOPRAM TABS                                           TAKE 1 TABLET DAILY                                                                                                                                                                                     202105290000090000202105290000090000000009000001010000000000N JANSEN                   DONALD         33674 OLD VALLEY PIK                                        STRASBURG           VA226570000      TE5404591410FJ9927774      011811449689                                                                                                                                                                                                                                                  0022                                                                                                                                                                                                                                                                                             
RX074213654452                            GOSS                               JEFFREY                             GOSS                               CLAUDINE                            0042 CLIFTON DR                                               AGAWAM              MA010013302      TE4137868588claudinegoss@gmail.com                                                          196802032   211523484317202106020355111064501        1OMEPRAZOLE DR CAPS                                          CAPSULE DR                    40MG           00000090000030900355111064501        OMEPRAZOLE DR CAPS                                          TAKE 1 CAPSULE DAILY                                                                                                                                                                                    202106030000090000202108260000180000000018000002020100000000N PRESTIA                  CLIFFORD       125 LIBERTY ST STE 4                                        SPRINGFIELD         MA011030000      TE4137370950AP5492777      011497740351                                                                                                                                                                                                                                                  0022                                                                                                                                                                                                                                                                                             
RX074213654452                            GOSS                               JEFFREY                             GOSS                               CLAUDINE                            0042 CLIFTON DR                                               AGAWAM              MA010013302      TE4137868588claudinegoss@gmail.com                                                          196802032   212600367317202109200370710122901        1AMITRIPTYLINE HCL TABS                                      TABLET                        100MG          00000090000030900370710122901        AMITRIPTYLINE HCL TABS                                      TAKE 1 TABLET EVERY NIGHT AT BEDTIME ONLY                                                                                                                                                               202109210000090000202109210000090000000027000001030000000000N PRESTIA                  CLIFFORD       125 LIBERTY ST STE 4                                        SPRINGFIELD         MA011030000      TE4137370950AP5492777      011497740351                                                                                                                                                                                                                                                  0022                                                                                                                                                                                                                                                                                             
RX074213654452                            GOSS                               JEFFREY                             GOSS                               CLAUDINE                            0042 CLIFTON DR                                               AGAWAM              MA010013302      TE4137868588claudinegoss@gmail.com                                                          196802032   212950193617202110250300378464126        1ESTRADIOL (V) TD PATCH 8'S                                  PATCH TDSW                    0.075MG        00000024000030840300378464126        ESTRADIOL (V) TD PATCH 8'S                                  APPLY 1 PATCH TRANSDERMALLY TWICE WEEKLY                                                                                                                                                                202110250000024000202110250000024000000007200001030000000000N PRESTIA                  CLIFFORD       125 LIBERTY ST STE 4                                        SPRINGFIELD         MA011030000      TE4137370950AP5492777      011497740351                                                                                                                                                                                                                                                  0022                                                                                                                                                                                                                                                                                             
RX074213654452                            GOSS                               JEFFREY                             GOSS                               CLAUDINE                            0042 CLIFTON DR                                               AGAWAM              MA010013302      TE4137868588claudinegoss@gmail.com                                                          196802032   212982065917202110250300456155060        1SAVELLA TABS                                                TABLET                        50MG           00000180000030900300456155060        SAVELLA TABS                                                TAKE 1 TABLET TWICE A DAY                                                                                                                                                                               202110260000180000202110260000180000000054000001030000000000N PRESTIA                  CLIFFORD       125 LIBERTY ST STE 4                                        SPRINGFIELD         MA011030000      TE4137370950AP5492777      011497740351                                                                                                                                                                                                                                                  0022                                                                                                                                                                                                                                                                                             
RX074213654452                            GOSS                               JEFFREY                             GOSS                               CLAUDINE                            0042 CLIFTON DR                                               AGAWAM              MA010013302      TE4137868588claudinegoss@gmail.com                                                          196802032   211301956156202105100300071080524        1NEURONTIN CAPS                                              CAPSULE                       300MG          00000090000030900369097094307        GABAPENTIN CAPS                                             TAKE 1 CAPSULE THREE TIMES A DAY AS NEEDED                                                                                                                                                              202105100000090000202105100000090000000027000001030000000000N TIBBITTS                 BRANDON        125 LIBERTY ST                                              SPRINGFIELD         MA011030000      TE4137396611MT4222751      011205276474                                                                                                                                                                                                                                                  0022                                                                                                                                                                                                                                                                                             
RX074213654452                            GOSS                               JEFFREY                             GOSS                               CLAUDINE                            0042 CLIFTON DR                                               AGAWAM              MA010013302      TE4137868588claudinegoss@gmail.com                                                          196802032   211602317156202106090369097094307        1GABAPENTIN CAPS                                             CAPSULE                       300MG          00000270000030900369097094307        GABAPENTIN CAPS                                             TAKE 1 CAPSULE THREE TIMES A DAY AS NEEDED                                                                                                                                                              202106140000270000202108160000540000000054000002020100000000N TIBBITTS                 BRANDON        125 LIBERTY ST                                              SPRINGFIELD         MA011030000      TE4137396611MT4222751      011205276474                                                                                                                                                                                                                                                  0022                                                                                                                                                                                                                                                                                             
RX074213654452                            GOSS                               JEFFREY                             GOSS                               CLAUDINE                            0042 CLIFTON DR                                               AGAWAM              MA010013302      TE4137868588claudinegoss@gmail.com                                                          196802032   212531725156202109100300713063337        1METRONIDAZOLE CREAM 45GM                                    CREAM(GM)                     0.75%          00000135000030900300713063337        METRONIDAZOLE CREAM 45GM                                    APPLY 1 APPLICATION TWICE A DAY                                                                                                                                                                         202109130000135000202109130000135000000040500001030000000000N DEMOS                    PETER          125 LIBERTY STREET                                          SPRINGFIELD         MA011030000      TE4137396611AD2476491      011619977402                                                                                                                                                                                                                                                  0022                                                                                                                                                                                                                                                                                             
RX074213654452                            GOSS                               JEFFREY                             GOSS                               SAMANTHA                            0042 CLIFTON DR                                               AGAWAM              MA010013302      TE4137868588sam42696@gmail.com                                                              199604262   211802454756202106290364764075030        1TRINTELLIX TABS                                             TABLET                        20MG           00000090000030900364764075030        TRINTELLIX TABS                                             TAKE 1 TABLET DAILY                                                                                                                                                                                     202106290000090000202110110000180000000018000002020100000000N PRESTIA                  CLIFFORD       125 LIBERTY STREET                                          SPRINGFIELD         MA011030000      TE4137370950AP5492777      011497740351                                                                                                                                                                                                                                                  0033                                                                                                                                                                                                                                                                                             
RX086858138978                            SARVER                             BRIAN                               SARVER                             WANDA                               0010 WHITE DOGWOOD DR                                         ETTERS              PA173199567      TE7175422710                                                                                195804192   212111797165202107300327808015701        1ROSUVASTATIN TABS                                           TABLET                        20MG           20000090000030900327808015701        ROSUVASTATIN TABS                                           TAKE 1 TABLET DAILY                                                                                                                                                                                     202108040000090000202108040000090000000027000001030000000000N MCCAULEY                 JULIE          875 POPLAR CHURCH RD                                        CAMP HILL           PA170110000      TE7177246450               011093901654                                                                                                                                                                                                                                                  0022                                                                                                                                                                                                                                                                                             
RX120473488734                            LONDON                             BRYAN                               LONDON                             GRACE                               00525 MOUL AVE                                                HANOVER             PA173311544      TE4106898364                                                                                201111242   212570943617202109140300173071820        1FLOVENT HFA INH AEROSOL 10.6G                               AER W/ADAP                    44MCG          00000031800030900300173071820        FLOVENT HFA INH AEROSOL 10.6G                               USE 2 INHALATIONS TWICE A DAY                                                                                                                                                                           202109150000031800202109150000031800000009540001030000000000N KARCHNER                 CATHYRN        11 HUNTERS TRL                                              GETTYSBURG          PA173250000      TE7173347681BK8528513      011073505079                                                                                                                                                                                                                                                  0043                                                                                                                                                                                                                                                                                             
RX134978475384                            HEALY                              GRACE                               HEALY                              GRACE                               001104 STAFFORD ST              P O BOX 453                   ROCHDALE            MA015420000      TE5089816786ghealy@sttc.com                                                                 196104222   211411352412202105210360505267109        1ATORVASTATIN TABS                                           TABLET                        80MG           00000090000030900360505267109        ATORVASTATIN TABS                                           TAKE 1 TABLET DAILY                                                                                                                                                                                     202105230000090000202108220000180000000018000002020100000000N JAQUITH-HOUSTON          THOMAS         4 BROTHERTON WAY                                            AUBURN              MA015010000      TE5087211199               011013074681                                                                                                                                                                                                                                                  0011                                                                                                                                                                                                                                                                                             
RX134978475384                            HEALY                              GRACE                               HEALY                              GRACE                               001104 STAFFORD ST              P O BOX 453                   ROCHDALE            MA015420000      TE5089816786ghealy@sttc.com                                                                 196104222   211411352512202105210355111046601        1METOPROLOL SUCCINATE ER TABS                                TAB ER 24H                    25MG           00000090000030900355111046601        METOPROLOL SUCCINATE ER TABS                                TAKE 1 TABLET DAILY                                                                                                                                                                                     202105230000090000202108220000180000000018000002020100000000N JAQUITH-HOUSTON          THOMAS         4 BROTHERTON WAY                                            AUBURN              MA015010000      TE5087211199               011013074681                                                                                                                                                                                                                                                  0011                                                                                                                                                                                                                                                                                             
RX134978475384                            HEALY                              GRACE                               HEALY                              GRACE                               001104 STAFFORD ST              P O BOX 453                   ROCHDALE            MA015420000      TE5089816786ghealy@sttc.com                                                                 196104222   211411352612202105210300904675180        1ASPIRIN EC TABS                                             TABLET DR                     81MG           00000090000030900300904675180        ASPIRIN EC TABS                                             TAKE 1 TABLET DAILY                                                                                                                                                                                     202105230000090000202108220000180000000018000002020100000000N JAQUITH-HOUSTON          THOMAS         4 BROTHERTON WAY                                            AUBURN              MA015010000      TE5087211199               011013074681                                                                                                                                                                                                                                                  0011                                                                                                                                                                                                                                                                                             
RX137827652823                            MOORHEAD                           GERALD                              MOORHEAD                           JILL                                001841 FAIRFIELD AVE                                          YORK                PA174084301      TE7178142008Jasljr@comcast.net                                                              196006022   212581609557202109150300003089421        1ELIQUIS TABS                                                TABLET                        5MG            00000180000030900300003089421        ELIQUIS TABS                                                TAKE 1 TABLET TWICE A DAY                                                                                                                                                                               202109170000180000202109170000180000000054000001030000000000N LAKE                     SARAH          30 MONUMENT RD                                              YORK                PA174030000      TE7178512441ML5526770      011558917096                                                                                                                                                                                                                                                  0022                                                                                                                                                                                                                                                                                             
RX137827652823                            MOORHEAD                           GERALD                              MOORHEAD                           GERALD                              001841 FAIRFIELD AVE                                          YORK                PA174084301      TE7178142008Jasljr@comcast.net                                                              195411211   212101065957202107290364679092602        1ENALAPRIL MAL TABS                                          TABLET                        20MG           00000180000030900364679092602        ENALAPRIL MAL TABS                                          TAKE 1 TABLET TWICE A DAY                                                                                                                                                                               202108010000180000202110270000360000000036000002020100000000N MORRISSEY                CHELSIE        1550 RODNEY ROAD                                            YORK                PA174080000      TE7178468791MK6271516      011447854369                                                                                                                                                                                                                                                  0011                                                                                                                                                                                                                                                                                             
RX146850876143                            BATISTA                            CHRISTIANA                          BATISTA                            CHRISTIANA                          001118 THOMPSON AVE                                           ROSELLE             NJ072032811      TE9085919774chrissy3693@hotmail.com                                                         199303062   210635555212202103040308508200005        1OMNIPOD DASH PACK 5'S                                       CARTRIDGE                                    10000045000030900308508200005        OMNIPOD DASH PACK 5'S                                       USE OMNIPOD DASH AND CHANGE POD EVERY 2 DAYS                                                                                                                                                            202103080000045000202109010000135000000004500003010200000000N SHAH                     SUKETU         525 CENTRAL AVENUE,                                         WESTFIELD           NJ070900000      TE9083891910               011124050570                                                                                                                                                                                                                                                  0022                                                                                                                                                                                                                                                                                             
RX146850876143                            BATISTA                            CHRISTIANA                          BATISTA                            CHRISTIANA                          001118 THOMPSON AVE                                           ROSELLE             NJ072032811      TE9085919774chrissy3693@hotmail.com                                                         199303062   211722608512202106210308627005303        1DEXCOM G6 SENSOR 3'S                                        EACH                                         00000009000050900308627005303        DEXCOM G6 SENSOR 3'S                                        CHANGE EVERY 10 DAYS                                                                                                                                                                                    202106240000009000202106240000009000000003600001040000000000N SHAH                     SUKETU         525 CENTRAL AVENUE,                                         WESTFIELD           NJ070900000      TE9082222658               011124050570                                                                                                                                                                                                                                                  0022                                                                                                                                                                                                                                                                                             
RX146850876143                            BATISTA                            CHRISTIANA                          BATISTA                            CHRISTIANA                          001118 THOMPSON AVE                                           ROSELLE             NJ072032811      TE9085919774chrissy3693@hotmail.com                                                         199303062   211722608912202106210308627001601        1DEXCOM G6 TRANSMITTER                                       EACH                                         00000001000030900308627001601        DEXCOM G6 TRANSMITTER                                       CHANGE EVERY 3 MONTHS                                                                                                                                                                                   202106240000001000202106240000001000000000300001030000000000N SHAH                     SUKETU         525 CENTRAL AVENUE,                                         WESTFIELD           NJ070900000      TE9082222658               011124050570                                                                                                                                                                                                                                                  0022                                                                                                                                                                                                                                                                                             
RX146850876143                            BATISTA                            CHRISTIANA                          BATISTA                            CHRISTIANA                          001118 THOMPSON AVE                                           ROSELLE             NJ072032811      TE9085919774chrissy3693@hotmail.com                                                         199303062   212390189417202108270300002751001        1HUMALOG VIAL 10ML                                           UNITS                         100U/ML        10000090000030900300002751001        HUMALOG VIAL 10ML                                           INJECT UP TO 100 UNITS DAILY IN DIVIDED DOSES WITH INSULIN PUMP                                                                                                                                         202108300000090000202108300000090000000027000001030000000000N SHAH                     SUKETU         525 CENTRAL AVENUE,                                         WESTFIELD           NJ070900000      TE9082222658               011124050570                                                                                                                                                                                                                                                  0022                                                                                                                                                                                                                                                                                             
RX165035955824                            KEIPER                             STEPHANIE                           KEIPER                             RICHARD                             00115 MILL ST                                                 EASTON              PA180429721      TE4843572285ktpco1999@gmail.com                                                             196204081   210694653756202103100368462019001        1NAPROXEN TABS                                               TABLET                        500MG          00000060000020300368462019001        NAPROXEN TABS                                               TAKE 1 TABLET TWICE A DAY WITH MEALS                                                                                                                                                                    202103110000060000202103110000060000000012000001020000000000N SOM                      HANH-DUNG      3101 EMRICK BLVD                                            BETHLEHEM           PA180200000      TE6104196426               011235310004                                                                                                                                                                                                                                                  0022                                                                                                                                                                                                                                                                                             
RX182187900930                            JOHNSTON                           WILLIAM                             JOHNSTON                           ELAINE                              0089 N LEWISBERRY RD                                          DILLSBURG           PA170199124      TE99999999992black_adelphia1@comcast.net                                                    196905012   210430459217202102120316729000301        1GLIMEPIRIDE TABS                                            TABLET                        4MG            00000180000030900316729000301        GLIMEPIRIDE TABS                                            TAKE 1 TABLET TWICE A DAY                                                                                                                                                                               202102140000180000202108120000540000000018000003010200000000N DENTE                    CARLA          108 LOWTHER STREET                                          LEMOYNE             PA170430000      TE7177741366BD6399427      011720079122                                                                                                                                                                                                                                                  0022                                                                                                                                                                                                                                                                                             
RX182187900930                            JOHNSTON                           WILLIAM                             JOHNSTON                           ELAINE                              0089 N LEWISBERRY RD                                          DILLSBURG           PA170199124      TE99999999992black_adelphia1@comcast.net                                                    196905012   210840376017202103250368180051201        1LISINOPRIL TABS                                             TABLET                        2.5MG          00000180000030900368180051201        LISINOPRIL TABS                                             TAKE 1 TABLET TWICE A DAY                                                                                                                                                                               202103250000180000202109220000540000000018000003010200000000N DENTE                    CARLA          108 LOWTHER STREET                                          LEMOYNE             PA170430000      TE7177741366BD6399427      011720079122                                                                                                                                                                                                                                                  0022                                                                                                                                                                                                                                                                                             
